S01800006275696C642F6D696361322F6D61696E2E737265632D
S11300000C9488010C94A7010C94A7010C94A701EB
S11300100C94A7010C94A7010C94A7010C94A701BC
S11300200C94A7010C94A7010C94A7010C94A701AC
S11300300C94A7010C94A7010C94A7010C947E04C2
S11300400C94E1010C94582A0C94A7010C94A70178
S11300500C94A7010C94FE300C94A7010C94A701F6
S11300600C94A7010C94A7010C94A7010C94A7016C
S11300700C94A7010C94A7010C94A7010C94A7015C
S11300800C94A7010C94A7010C94A7010000211063
S1130090422063308440A550C660E77008812991EE
S11300A04AA16BB18CC1ADD1CEE1EFF13112100296
S11300B073325222B5529442F772D662399318833E
S11300C07BB35AA3BDD39CC3FFF3DEE36224433462
S11300D020040114E664C774A44485546AA54BB58E
S11300E028850995EEE5CFF5ACC58DD55336722636
S11300F011163006D776F6669556B4465BB77AA7DE
S113010019973887DFF7FEE79DD7BCC7C448E55881
S11301108668A7784008611802282338CCC9EDD92D
S11301208EE9AFF9488969990AA92BB9F55AD44AD5
S1130130B77A966A711A500A333A122AFDDBDCCB7D
S1130140BFFB9EEB799B588B3BBB1AABA66C877CA1
S1130150E44CC55C222C033C600C411CAEED8FFDCD
S1130160ECCDCDDD2AAD0BBD688D499D977EB66E75
S1130170D55EF44E133E322E511E700E9FFFBEEF1D
S1130180DDDFFCCF1BBF3AAF599F788F8891A981DF
S1130190CAB1EBA10CD12DC14EF16FE18010A100C9
S11301A0C230E3200450254046706760B9839893B9
S11301B0FBA3DAB33DC31CD37FE35EF3B102901219
S11301C0F322D2323542145277625672EAB5CBA585
S11301D0A89589856EF54FE52CD50DC5E234C32469
S11301E0A01481046674476424540544DBA7FAB759
S11301F09987B8975FE77EF71DC73CD7D326F236B9
S11302009106B01657667676154634564CD96DC9A4
S11302100EF92FE9C899E9898AB9ABA94458654808
S113022006782768C018E1088238A3287DCB5CDBF8
S11302303FEB1EFBF98BD89BBBAB9ABB754A545A58
S1130240376A167AF10AD01AB32A923A2EFD0FEDC4
S11302506CDD4DCDAABD8BADE89DC98D267C076CA8
S1130260645C454CA23C832CE01CC10C1FEF3EFF98
S11302705DCF7CDF9BAFBABFD98FF89F176E367EF8
S1130280554E745E932EB23ED10EF01E00081C181B
S11302901410ABBA83AAAA3158000057F685035547
S11302A044020F60E0261C6B557081317C00007B9A
S11302B0F9AE02388C3280401026A16B5510F33110
S11302C051000050F74F030E44020F58E026A16B73
S11302D0557081315CE0005CDB4201AA8C328030D5
S11302E01026A16B5510F3314560004555BB039CA6
S11302F080020F68E026A16B5470813158000057CA
S1130300F685035590020F60E026A16B55708100BD
S113031011241FBECFEFD0E1DEBFCDBF11E0A0E0BE
S1130320B1E0EAE8F0E700E00BBF02C007900D92ED
S1130330AC30B107D9F711E0ACE0B1E001C01D92D7
S1130340AE3DB107E1F70E9473160C9444380C9447
S113035000008FB7F894992708958FBF0895ECE8AB
S1130360F0E06927660FF11DE60FF11DC895982F7F
S1130370802D3196C89590250895880F949890E023
S113038087FF02C0979A01C097989698969A9F5FA4
S1130390973011F0880FF4CF979A9698969A949A7A
S11303A080E067FF02C0979A01C097989698969A42
S11303B08F5F883011F0660FF4CF949A979A969ACB
S11303C008951F920F920FB60F9211248F9383B743
S11303D083BF00B600FCFDCF8F910F900FBE0F902E
S11303E01F901895EF92FF920F931F938FB7F89475
S11303F0282F3327E22F91B782B746B7981711F009
S113040041FF02C02FBFABC08091BB01882309F418
S113041060C06FB7F89482B72091B4013091B501F0
S11304204091B6015091B70106B601FE0FC081B7E5
S113043092B7280F311D411D511D2F5F3F4F4F4F64
S11304405F4F290F311D411D511D04C0280F311D5F
S1130450411D511D862F99278FBFE0909901F0907F
S11304609A0100919B0110919C018091BC01909193
S1130470BD01A091BE01B091BF012E193F09400BEF
S1130480510B281739074A075B0720F01092BB016C
S113049071E020C0A8019701280F391F4A1F5B1F74
S11304A08091B4019091B501A091B601B091B701CA
S11304B0281B390B4A0B5B0B273E310541055105BF
S11304C040F4822F223010F070E005C070E082E02A
S11304D002C070E086EE682F615000B601FCFDCFCB
S11304E082B7681709F46F5F2091B4013091B501A8
S11304F04091B6015091B701DA01C9010196A11DDD
S1130500B11D860F911DA11DB11D82179307A4076C
S1130510B50710F4622F609561BFEFBF7723F9F040
S11305209FB7F8948091CB018F3F81F48091D901DA
S1130530882361F00FC01092CA0106C0E091D9016E
S1130540FF27E553FE4F10821092D901892F992776
S11305508FBF05C08091CA018F3F81F7ECCF1F91F7
S11305600F91FF90EF90089580910D01843009F46C
S1130570DDC0853009F4A9C0813009F038C180910B
S11305804D0181FD34C190E080918D018F3108F0DF
S113059091E0992309F468C080915301909154012A
S11305A0892B89F56FB7F89482B72091B401309103
S11305B0B5014091B6015091B70106B601FE0FC0D6
S11305C081B792B7280F311D411D511D2F5F3F4F39
S11305D04F4F5F4F290F311D411D511D04C0280F7E
S11305E0311D411D511D862F99278FBF2093450131
S11305F030934601409347015093480180E09AE0CC
S1130600A0E0B0E0C6C06FB7F89482B72091B401FF
S11306103091B5014091B6015091B70106B601FE83
S11306200FC081B792B7280F311D411D511D2F5F97
S11306303F4F4F4F5F4F290F311D411D511D04C0C6
S1130640280F311D411D511D862F99278FBF2093DF
S113065045013093460140934701509348018EE190
S113066090E0A0E0B0E095C06FB7F89482B7209115
S1130670B4013091B5014091B6015091B70106B66D
S113068001FE0FC081B792B7280F311D411D511DC6
S11306902F5F3F4F4F4F5F4F290F311D411D511D9C
S11306A004C0280F311D411D511D862F99278FBF6E
S11306B020934501309346014093470150934801EC
S11306C080E098E0A0E0B0E064C06FB7F89482B72F
S11306D02091B4013091B5014091B6015091B70118
S11306E006B601FE0FC081B792B7280F311D411D18
S11306F0511D2F5F3F4F4F4F5F4F290F311D411D3C
S1130700511D04C0280F311D411D511D862F9927ED
S11307108FBF209345013093460140934701509386
S1130720480181E090E0A0E0B0E033C06091530163
S113073070915401EFB7F89482B72091B4013091CD
S1130740B5014091B6015091B70106B601FE0FC044
S113075081B792B7280F311D411D511D2F5F3F4FA7
S11307604F4F5F4F290F311D411D511D04C0280FEC
S1130770311D411D511D8E2F99278FBF2093450197
S1130780309346014093470150934801CB01AA2777
S1130790BB278093490190934A01A0934B01B093E6
S11307A04C0180914D01836080934D019FB7F89473
S11307B08091CC018F3F91F48091D901813091F4E3
S11307C00DC081E08093CA0107C0E091D901FF27E1
S11307D0E553FE4F81E080838093D901892F9927C7
S11307E08FBF08958091CA018F3F79F7EACF0895AA
S11307F0982F80910401843009F076C0909304010D
S11308009091070180910F01882309F070C082E064
S113081080930F0110928E01379A913031F4109227
S1130820070183E080930F0109C0992339F081E027
S113083080930F0110928E01379A5DC082E08093FD
S1130840B3011092BA013FB7F8949091D701892F60
S11308508E7F8093D70187B120E082958695869517
S1130860837009F021E081E02827220F9078922BF1
S11308709093D70117B8809197019091980121E046
S11308808638920718F087E090E01FC0833C9105FA
S113089018F086E090E019C08136910518F085E0E3
S11308A090E013C08033910518F084E090E00DC00F
S11308B08831910518F083E090E007C00C9718F098
S11308C082E090E002C080E090E08770987D982BF1
S11308D0986D892F992786B9832F99278FBF0BC0CD
S11308E081608093570107C09093520104C08091A6
S11308F0570180FFF5CF80E090E008951F920F929A
S11309000FB60F921124EF92FF920F931F932F9320
S11309103F934F935F936F937F938F939F93AF9383
S1130920BF93EF93FF9383B783BF00B600FCFDCF63
S113093081B799270196AA27BB272091B40130914A
S1130940B5014091B6015091B701280F391F4A1FD4
S11309505B1F2093B4013093B5014093B6015093CB
S1130960B70178948FB7F894282F3327E22F91B7E3
S113097082B746B7981711F041FF02C02FBFABC032
S11309808091BB01882309F460C06FB7F89482B7E3
S11309902091B4013091B5014091B6015091B70155
S11309A006B601FE0FC081B792B7280F311D411D55
S11309B0511D2F5F3F4F4F4F5F4F290F311D411D79
S11309C0511D04C0280F311D411D511D862F99272B
S11309D08FBFE0909901F0909A0100919B011091D2
S11309E09C018091BC019091BD01A091BE01B09188
S11309F0BF012E193F09400B510B281739074A072D
S1130A005B0720F01092BB0171E020C0A8019701A0
S1130A10280F391F4A1F5B1F8091B4019091B501C3
S1130A20A091B601B091B701281B390B4A0B5B0B9F
S1130A30273E31054105510540F4822F223010F044
S1130A4070E005C070E082E002C070E086EE682FBE
S1130A50615000B601FCFDCF82B7681709F46F5FDF
S1130A602091B4013091B5014091B6015091B70184
S1130A70DA01C9010196A11DB11D860F911DA11DA9
S1130A80B11D82179307A407B50710F4622F609570
S1130A9061BFEFBF7723F9F09FB7F8948091CB0142
S1130AA08F3F81F48091D901882361F00FC01092A7
S1130AB0CA0106C0E091D901FF27E553FE4F108219
S1130AC01092D901892F99278FBF05C08091CA013F
S1130AD08F3F81F7ECCFFF91EF91BF91AF919F9141
S1130AE08F917F916F915F914F913F912F911F91C2
S1130AF00F91FF90EF900F900FBE0F901F901895DD
S1130B0020919601949892E180E097FF02C0979A11
S1130B1001C097989698969A8F5F873011F0990F35
S1130B20F4CF979A9698969A949A80E027FF02C0F9
S1130B30979A01C097989698969A8F5F883011F08B
S1130B40220FF4CF949A979A969A949896E180E01B
S1130B5097FF02C0979A01C097989698969A8F5FCC
S1130B60873011F0990FF4CF979A9698969A949AA1
S1130B7080E097989698969A8F5F8830D1F7949AE8
S1130B80979A969A949880E097989698969A8F5FF9
S1130B908730D1F7979A9698969A949A91E180E043
S1130BA097FF02C0979A01C097989698969A8F5F7C
S1130BB0883011F0990FF4CF949A979A969A8DE70A
S1130BC090E0019701960197E1F708952F923F92E3
S1130BD04F925F926F927F928F929F92AF92BF9249
S1130BE0CF92DF92EF92FF920F931F93CF93DF93F5
S1130BF0CDB7DEB7CE56D0400FB6F894DEBF0FBEE9
S1130C00CDBF182F853011F40C9489108630B8F4B8
S1130C10823011F40C94FD0D833038F4882399F15B
S1130C20813011F00C94591666C2833011F40C947F
S1130C30400F843011F00C9459160C949D0F883099
S1130C4011F40C94DE13893050F4863011F40C94B2
S1130C500511873011F00C9459160C942B118A301D
S1130C6051F08A3010F40C9440148B3011F00C9431
S1130C7059160C945A148091C901882311F00C94CC
S1130C8043140C94591680914E01882309F043C0F3
S1130C90E090C401F090C5010091C6011091C70114
S1130CA06FB7F89477272091990130919A01409178
S1130CB09B0150919C018091BC019091BD01A09138
S1130CC0BE01B091BF01280F391F4A1F5B1F6FBFC0
S1130CD0E092C401F092C5010093C6011093C701CC
S1130CE010924E016FB7F894772781E08093BB018F
S1130CF02093990130939A0140939B0150939C0156
S1130D00E092BC01F092BD010093BE011093BF01BB
S1130D106FBF0E94F2016FB7F89482B72091B401BB
S1130D203091B5014091B6015091B70106B601FE6C
S1130D300FC081B792B7280F311D411D511D2F5F80
S1130D403F4F4F4F5F4F290F311D411D511D04C0AF
S1130D50280F311D411D511D2BA33CA34DA35EA3A0
S1130D60862F99278FBF70E089E0789FF0011124C6
S1130D70E45CFE4F608561FFB9C12081318142810D
S1130D805381E480F580068117818BA19CA1ADA1DC
S1130D90BEA1821B930BA40BB50B8E159F05A00758
S1130DA0B10708F4A3C160FF03C06D7F608708C06A
S1130DB02E0D3F1D401F511F2083318342835383D7
S1130DC0772321F0713009F091C15CC180910C014D
S1130DD0882311F00C94521640E151E080911401E3
S1130DE08093040084EC80931A0187E080931901B6
S1130DF081EA8093180183EF809317018FEF80932A
S1130E0011018093100123E9209316018091500170
S1130E1090915101892B11F00C9452165093510169
S1130E204093500164E06093140180910A01882387
S1130E3009F4F7C010920A018FEF9FEF809311011C
S1130E408FEF90E0809310012FB7F89433278091AF
S1130E500801909109012FBF80931301892F9927CD
S1130E608093120182E2809315018FB7F894282FA2
S1130E7033279091DD0191FD04C080919101882375
S1130E8051F42FBF81E080930A0110925101109216
S1130E9050010C94521692609093DD0160931401FA
S1130EA050935A01409359012FBF2FB72AA3F894A6
S1130EB08091940182608093940120910D012430EB
S1130EC0F1F49FB7F8948091CF018F3FA9F48091FA
S1130ED0D901843011F00C9472150EC084E0809313
S1130EE0CA018093D90108C0E091D901FF27E553D5
S1130EF0FE4F20832093D901892F99278FBF80919A
S1130F00940180FD50C0209087013090880140906A
S1130F10890150908A01662477248824EEE4AE2E59
S1130F2073E8B72ECC24DD24EE24FF2400E010E087
S1130F30222D332D442D552D662D772D882D90E0AF
S1130F400E94C1352FA338A749A75AA76BA77CA72E
S1130F508DA79EA7822E932EA42EB52E2401350193
S1130F6000E20E94BF36A22EB32EC42ED52ED3018A
S1130F70C201B695A795979587958A0D9B1DAC1DC3
S1130F80BD1DB7FF04C0BF770196A11DB11D80939D
S1130F90870190938801A0938901B0938A018F718E
S1130FA09070019602C081E090E09093B901809323
S1130FB0B801809135019927782F662780913601F1
S1130FC09927682B792B77FD05C0609153017091A7
S1130FD0540102C060957095E5E3F1E0118210922E
S1130FE035016115710529F466E070E080E090E058
S1130FF010C08827992726E632E040E050E00E949E
S1131000CC37672F782F892F99276A5E7F4F8F4FB0
S11310109F4F7093B0016093AF013AA1832F99273A
S11310208FBF81E080930C016FB7F89482B7209151
S1131030B4013091B5014091B6015091B70106B6A3
S113104001FE0FC081B792B7280F311D411D511DFC
S11310502F5F3F4F4F4F5F4F290F311D411D511DD2
S113106004C0280F311D411D511D862F99278FBFA4
S11310702093C0013093C1014093C2015093C30136
S11310800C9452168FB7F894082F1127F02E8091E4
S11310900D018430B9F08530F9F0813019F590E014
S11310A080919101833009F491E09923D9F48091DE
S11310B00401843019F085E08093040181E00E94EA
S11310C0F80310C085E080930D011092D80169E304
S11310D080E00E94BD0106C00E94800583E00E945A
S11310E0F80361C30E94B402FFBE11C77F5F723070
S11310F008F43ACE0CC76FB7F89482B72091B401C4
S11311003091B5014091B6015091B70106B601FE88
S11311100FC081B792B7280F311D411D511D2F5F9C
S11311203F4F4F4F5F4F290F311D411D511D04C0CB
S1131130280F311D411D511D2D8F3E8F4F8F58A3F8
S1131140862F99278FBF8FB7F89499271092BB01E8
S11311508FBF8091440181FF27C080913C01909111
S11311603D01A0913E01B0913F012D8D3E8D4F8DEB
S113117058A1281B390B4A0B5B0BE0904001F090FF
S113118041010091420110914301E21AF30A040B58
S1131190150B3FEFE3163FEFF3063FEF03073FE77F
S11311A0130711F061E009C03FEFE32E3FEFF32E88
S11311B03FEF032F3FE7132F60E080914D0181FF44
S11311C026C08091450190914601A0914701B091BC
S11311D048012D8D3E8D4F8D58A1281B390B4A0B8C
S11311E05B0BDA01C9012091490130914A01409118
S11311F04B0150914C01281B390B4A0B5B0B2E15EC
S11312003F05400751071CF479018A0104C0662395
S113121011F40C9459161E141F04100611060CF434
S11312200CC470E089E0789FF0011124E45CFE4F67
S1131230608561FFFDC32081318142815381E48057
S1131240F580068117818D8D9E8DAF8DB8A1821B8F
S1131250930BA40BB50B8E159F05A007B10708F4DB
S1131260E7C360FF03C06D7F608708C02E0D3F1D7C
S1131270401F511F2083318342835383772321F0FE
S1131280713009F0D5C35CC180910C01882311F041
S11312900C94551640E151E08091140180930400B0
S11312A084EC80931A0187E08093190181EA80938A
S11312B0180183EF809317018FEF809311018093BE
S11312C0100123E92093160180915001909151015E
S11312D0892B11F00C9455165093510140935001F1
S11312E064E06093140180910A01882309F4F7C033
S11312F010920A018FEF9FEF809311018FEF90E01E
S1131300809310012FB7F8943327809108019091AE
S113131009012FBF80931301892F9927809312010C
S113132082E2809315018FB7F894282F3327909188
S1131330DD0191FD04C080919101882351F42FBFF8
S113134081E080930A0110925101109250010C9493
S1131350551692609093DD016093140150935A01E5
S1131360409359012FBF3FB739A3F894809194015A
S113137082608093940120910D012430F1F49FB791
S1131380F8948091CF018F3FA9F48091D9018430E2
S113139011F00C947A150EC084E08093CA018093F6
S11313A0D90108C0E091D901FF27E553FE4F2083FE
S11313B02093D901892F99278FBF8091940180FDB3
S11313C050C020908701309088014090890150904E
S11313D08A016624772488249EE4A92E83E8B82E03
S11313E0CC24DD24EE24FF2400E010E0222D332D54
S11313F0442D552D662D772D882D90E00E94C13502
S11314002FA738AB49AB5AAB6BAB7CAB8DAB9EAB68
S1131410822E932EA42EB52E2401350100E20E94C3
S1131420BF36A22EB32EC42ED52ED301C201B6953B
S1131430A795979587958A0D9B1DAC1DBD1DB7FF7C
S113144004C0BF770196A11DB11D809387019093BD
S11314508801A0938901B0938A018F7190700196DD
S113146002C081E090E09093B9018093B80180912B
S113147035019927782F6627809136019927682BA3
S1131480792B77FD05C0609153017091540102C01E
S113149060957095E5E3F1E01182109235016115D4
S11314A0710529F466E070E080E090E010C08827C0
S11314B0992726E632E040E050E00E94CC37672FBF
S11314C0782F892F99276A5E7F4F8F4F9F4F709394
S11314D0B0016093AF0149A1842F99278FBF81E0A8
S11314E080930C016FB7F89482B72091B4013091C6
S11314F0B5014091B6015091B70106B601FE0FC087
S113150081B792B7280F311D411D511D2F5F3F4FE9
S11315104F4F5F4F290F311D411D511D04C0280F2E
S1131520311D411D511D862F99278FBF2093C00166
S11315303093C1014093C2015093C3010C945516DA
S11315408FB7F894082F80910D01843009F496C068
S1131550853009F49DC0813009F02CC190E0809160
S11315609101833009F491E0992309F02EC180910F
S11315700401843011F40C94821585E080930401F5
S11315807093520117C192E090930F0110928E0153
S1131590379A80910701813029F41092070183E082
S11315A080930F0180910701882311F40C948C150A
S11315B070930F0110928E01379A813009F0FAC0AE
S11315C02EC08091570180FF55C0F4C0833C910523
S11315D018F086E090E019C08136910518F085E096
S11315E090E013C08033910518F084E090E00DC0C2
S11315F08831910518F083E090E007C00C9718F04B
S113160082E090E002C080E090E08770187D182BA3
S1131610186D812F992786B9832F992720C080912F
S11316200F018130F1F49FB7F8948091D3018F3F7B
S1131630A1F48091D901883011F00C94B7150DC034
S113164088E08093CA0107C0E091D901FF27E553E0
S1131650FE4F88E080838093D901892F99278FBF1B
S1131660A9C0823009F0A6C01092070183E08093DC
S11316700F01A0C08160809357019CC085E08093D6
S11316800D011092D80169E380E00E94BD0192C06F
S11316900E94800580910401843009F081C093E0A8
S11316A09093040180910F018823F1F422E02093A8
S11316B00F0110928E01379A80910701813021F435
S11316C01092070190930F0190910701992311F44F
S11316D00C94BF1581E080930F0110928E01379A0C
S11316E0913009F060C02EC08091570180FF54C032
S11316F05AC0833C910518F086E090E019C0813609
S1131700910518F085E090E013C08033910518F03E
S113171084E090E00DC08831910518F083E090E0FA
S113172007C00C9718F082E090E002C080E090E0DF
S11317308770187D182B186D812F992786B9832FF0
S1131740992720C080910F018130F1F49FB7F8945C
S11317508091D3018F3FA1F48091D901883011F099
S11317600C94EA150DC088E08093CA0107C0E0918B
S1131770D901FF27E553FE4F88E080838093D90188
S1131780892F99278FBF0FC0823069F41092070107
S113179083E080930F0107C081608093570103C0E9
S11317A083E08093520180E590E0019701960197D0
S11317B0E1F73CC180910D01843009F4DDC085302E
S11317C009F4A9C0813009F031C180914D0181FD36
S11317D02DC190E080918D018F3108F091E0992323
S11317E009F468C08091530190915401892B89F5C3
S11317F06FB7F89482B72091B4013091B50140914C
S1131800B6015091B70106B601FE0FC081B792B779
S1131810280F311D411D511D2F5F3F4F4F4F5F4F0B
S1131820290F311D411D511D04C0280F311D411DBB
S1131830511D862F99278FBF209345013093460170
S1131840409347015093480180E09AE0A0E0B0E063
S1131850C6C06FB7F89482B72091B4013091B50136
S11318604091B6015091B70106B601FE0FC081B791
S113187092B7280F311D411D511D2F5F3F4F4F4F10
S11318805F4F290F311D411D511D04C0280F311D0B
S1131890411D511D862F99278FBF209345013093F9
S11318A0460140934701509348018EE190E0A0E047
S11318B0B0E095C06FB7F89482B72091B40130912D
S11318C0B5014091B6015091B70106B601FE0FC0B3
S11318D081B792B7280F311D411D511D2F5F3F4F16
S11318E04F4F5F4F290F311D411D511D04C0280F5B
S11318F0311D411D511D862F99278FBF209345010E
S113190030934601409347015093480180E098E0AA
S1131910A0E0B0E064C06FB7F89482B72091B4013E
S11319203091B5014091B6015091B70106B601FE60
S11319300FC081B792B7280F311D411D511D2F5F74
S11319403F4F4F4F5F4F290F311D411D511D04C0A3
S1131950280F311D411D511D862F99278FBF2093BC
S1131960450130934601409347015093480181E07B
S113197090E0A0E0B0E033C0609153017091540155
S1131980EFB7F89482B72091B4013091B50140913A
S1131990B6015091B70106B601FE0FC081B792B7E8
S11319A0280F311D411D511D2F5F3F4F4F4F5F4F7A
S11319B0290F311D411D511D04C0280F311D411D2A
S11319C0511D8E2F99278FBF2093450130934601D7
S11319D04093470150934801CB01AA27BB27E5E474
S11319E0F1E084839583A683B78380914D0183605E
S11319F080879FB7F8948091CC018F3FA1F48091A8
S1131A00D901813011F00C94F2150DC081E080935E
S1131A10CA0107C0E091D901FF27E553FE4F81E0D9
S1131A2080838093D901892F99278FBF0FBF6FC2FD
S1131A307F5F723008F4F6CB6AC2E092C401F09280
S1131A40C5010093C6011093C70121E020934E0104
S1131A508FB7F89499272093BB012D8D3E8D4F8D20
S1131A6058A12093990130939A0140939B0150937C
S1131A709C01E092BC01F092BD010093BE01109361
S1131A80BF018FBF8FB7F894282F3327E22F91B768
S1131A9082B746B7981711F40C94581641FF02C048
S1131AA00C9458168091BB01882309F460C06FB769
S1131AB0F89482B72091B4013091B5014091B601F8
S1131AC05091B70106B601FE0FC081B792B7280F37
S1131AD0311D411D511D2F5F3F4F4F4F5F4F290F48
S1131AE0311D411D511D04C0280F311D411D511DC3
S1131AF0862F99278FBFE0909901F0909A01009169
S1131B009B0110919C018091BC019091BD01A09119
S1131B10BE01B091BF012E193F09400B510B28178C
S1131B2039074A075B0720F01092BB0171E020C01F
S1131B30A8019701280F391F4A1F5B1F8091B40128
S1131B409091B501A091B601B091B701281B390B52
S1131B504A0B5B0B273E31054105510540F4822FAA
S1131B60223010F070E005C070E082E002C070E046
S1131B7086EE682F615000B601FCFDCF82B768176E
S1131B8009F46F5F2091B4013091B5014091B60121
S1131B905091B701DA01C9010196A11DB11D860F4B
S1131BA0911DA11DB11D82179307A407B50710F459
S1131BB0622F609561BFEFBF772311F40C9459161F
S1131BC09FB7F8948091CB018F3F11F00C946E1560
S1131BD08091D901882311F40C946E150C94FA1594
S1131BE01092CA0106C0E091D901FF27E553FE4FC8
S1131BF010821092D9010C946E151FB7F89480913D
S1131C000D01843009F4DDC0853009F4A9C08130A8
S1131C1009F033C180914D0181FD2FC190E0809185
S1131C208D018F3108F091E0992309F468C0809107
S1131C30530190915401892B89F56FB7F89482B7B9
S1131C402091B4013091B5014091B6015091B70192
S1131C5006B601FE0FC081B792B7280F311D411D92
S1131C60511D2F5F3F4F4F4F5F4F290F311D411DB6
S1131C70511D04C0280F311D411D511D862F992768
S1131C808FBF209345013093460140934701509301
S1131C90480180E09AE0A0E0B0E0C6C06FB7F894D5
S1131CA082B72091B4013091B5014091B6015091B1
S1131CB0B70106B601FE0FC081B792B7280F311DD8
S1131CC0411D511D2F5F3F4F4F4F5F4F290F311D56
S1131CD0411D511D04C0280F311D411D511D862F6A
S1131CE099278FBF209345013093460140934701C4
S1131CF0509348018EE190E0A0E0B0E095C06FB74A
S1131D00F89482B72091B4013091B5014091B601A5
S1131D105091B70106B601FE0FC081B792B7280FE4
S1131D20311D411D511D2F5F3F4F4F4F5F4F290FF5
S1131D30311D411D511D04C0280F311D411D511D70
S1131D40862F99278FBF20934501309346014093F6
S1131D5047015093480180E098E0A0E0B0E064C0FF
S1131D606FB7F89482B72091B4013091B5014091D6
S1131D70B6015091B70106B601FE0FC081B792B704
S1131D80280F311D411D511D2F5F3F4F4F4F5F4F96
S1131D90290F311D411D511D04C0280F311D411D46
S1131DA0511D862F99278FBF2093450130934601FB
S1131DB0409347015093480181E090E0A0E0B0E0F7
S1131DC033C06091530170915401EFB7F89482B716
S1131DD02091B4013091B5014091B6015091B70101
S1131DE006B601FE0FC081B792B7280F311D411D01
S1131DF0511D2F5F3F4F4F4F5F4F290F311D411D25
S1131E00511D04C0280F311D411D511D8E2F9927CE
S1131E108FBF20934501309346014093470150936F
S1131E204801CB01AA27BB278093490190934A011B
S1131E30A0934B01B0934C0180914D01836080933A
S1131E404D019FB7F8948091CC018F3F99F4809114
S1131E50D901813009F0D6C60DC081E08093CA0152
S1131E6007C0E091D901FF27E553FE4F81E080834D
S1131E708093D901892F99278FBF812F992730C645
S1131E808FB7F894992720910D018FBF222309F46D
S1131E9010C76FB7F89482B72091B4013091B5019F
S1131EA04091B6015091B70106B601FE0FC081B74B
S1131EB092B7280F311D411D511D2F5F3F4F4F4FCA
S1131EC05F4F290F311D411D511D04C0280F311DC5
S1131ED0411D511D862F99278FBF20933C013093BC
S1131EE03D0140933E0150933F0188E893E1A0E017
S1131EF0B0E08093400190934101A0934201B093DC
S1131F004301809144018E7F8260809344019FB796
S1131F10F8948091CC018F3F09F0E0C58091D901FC
S1131F20813009F075C6DAC581E0CCC5E091D901EC
S1131F30FF27E553FE4F81E0CEC50FB7F89480919B
S1131F40940181FD06C08091530190915401892B25
S1131F5071F580910D018450823008F0ADC08091FC
S1131F600401843019F085E08093040181E08093BA
S1131F700D019FB7F8948091CD018F3F99F4809122
S1131F80D901823009F04AC60DC082E08093CA01AB
S1131F9007C0E091D901FF27E553FE4F82E080831B
S1131FA08093D901892F99278FBF21E086C090E0C3
S1131FB080918D018F3108F091E0992309F47CC060
S1131FC090E080919101833009F491E0992309F024
S1131FD073C06FE380E00E94BD0160E08BE00E946B
S1131FE0BD0181E0809391016F98B89AC098809167
S1131FF00401843019F085E08093040110930D01ED
S11320006091530170915401EFB7F89482B7209115
S1132010B4013091B5014091B6015091B70106B6B3
S113202001FE0FC081B792B7280F311D411D511D0C
S11320302F5F3F4F4F4F5F4F290F311D411D511DE2
S113204004C0280F311D411D511D8E2F99278FBFAC
S11320502093450130934601409347015093480132
S1132060CB01AA27BB278093490190934A01A093EF
S11320704B01B0934C0180914D01836080934D01DD
S11320809FB7F8948091CC018F3F99F48091D90146
S1132090813009F0C9C50DC081E08093CA0107C031
S11320A0E091D901FF27E553FE4F81E080838093BF
S11320B0D901892F99278FBF20E0802F99278FBFBF
S11320C0222309F4F6C56BE380E00E94BD0180ED94
S11320D097E0019701960197E1F769E380E00E9498
S11320E0BD0188EC90E0019701960197E1F70FB7E5
S11320F0F894112782E08093910110928C01109240
S11321008B010E948005BB98BA9880EC8DB9B89871
S11321107AC08FB7F894992720918F01309190015C
S11321208FBF80915801E82FFF27EE0FFF1FE35662
S1132130FE4F318320838F5F80935801893010F0E4
S11321401092580180918D018F3118F48F5F809324
S11321508D01DE011196EDE9F1E082E101900D922D
S11321608150E1F760E08E010F5F1F4F41E050E0C6
S1132170DE011396E52FFF27EE0FFF1FE00FF11F7F
S11321802D913C911197808191818217930708F4D6
S1132190542F4F5F1296493069F7E52FFF276330BC
S11321A041F0EE0FFF1FE00FF11F118210826F5FED
S11321B0DDCF60910501709106018827992735E0EC
S11321C0660F771F881F991F3A95D1F7EE0FFF1FEF
S11321D0E00FF11F2081318144275527220F331F3F
S11321E0441F551F620F731F841F951F0FB7F89468
S11321F0112722E230E040E050E00E94EB373093B8
S11322000601209305010FBF54C52FB7F894332757
S11322104091590150915A018091DD018D7F809345
S1132220DD0182E08093910110928C0110928B0168
S11322302FBF80910A01882309F03BC5809150018A
S1132240909151018417950709F033C510925101FB
S11322501092500146C38FB7F894282F33278091EA
S11322609101853009F024C5409102015091030188
S11322705C8F4B8F2FBF7A0187E090E0E80EF91E48
S1132280FA01A481808141812FB7F89433276091AA
S11322900801709109012FBF9927982F8827552786
S11322A0842B952B8617970761F0808121819927CC
S11322B0982F88273327822B932B8F5F9F4F09F00A
S11322C03AC2EB8DFC8D8681823909F034C2AC3080
S11322D009F031C26FB7F89482B72091B4013091FC
S11322E0B5014091B6015091B70106B601FE0FC089
S11322F081B792B7280F311D411D511D2F5F3F4FEC
S11323004F4F5F4F290F311D411D511D04C0280F30
S1132310311D411D511D862F99278FBF8091C0010A
S11323209091C101A091C201B091C301281B390B46
S11323304A0B5B0B2B8B3C8B4D8B5E8B2093C0012C
S11323403093C1014093C2015093C301F7018481CA
S1132350158146805780708431846284E384EA8ED8
S11323609924AA24BB24CC24DD24EE24FF2408E3EE
S1132370282F392D4A2D5B2D6C2D7D2D8E2D9F2DD3
S11323800E9442372FAB38AF49AF5AAF6BAF7CAF27
S11323908DAF9EAF00E3212F392D4A2D5B2D6C2D7F
S11323A07D2D8E2D9F2D0E944237082F192FFFA9B6
S11323B0F22BFFAF28AD232B21962FAF219739ADF8
S11323C0342B22963FAF22974AAD452B23964FAF2D
S11323D023975BAD562B24965FAF24978CAD872B48
S11323E025968FAF25979DAD902B26969FAF269768
S11323F0AEADA12B2796AFAF2797AA24BB24CC243C
S1132400DD24EE24FF2408E1272D392D4A2D5B2DF0
S11324106C2D7D2D8E2D9F2D0E944237BFADB22B8A
S11324202896BFAF28972196EFAD2197E32B2996E5
S1132430EFAF29972296FFAD2297F42B2A96FFAF90
S11324402A9723962FAD2397252B2B962FAF2B97C7
S113245024963FAD2497362B2C963FAF2C97259688
S11324604FAD2597472B2D964FAF2D9726965FADF1
S11324702697582B2E965FAF2E9727968FAD2797CA
S1132480892B2F968FAF2F97AA24BB24CC24DD242D
S1132490EE24FF2408E0262D392D4A2D5B2D6C2DCA
S11324A07D2D8E2D9F2D0E944237A22EB32EC42E39
S11324B0D52EE62EF72E082F192F28969FAD289794
S11324C09A2960969FAF60972996AFAD2997AB295B
S11324D06196AFAF61972A96BFAD2A97BC296296E1
S11324E0BFAF62972B96EFAD2B97ED296396EFAFB5
S11324F063972C96FFAD2C97FE296496FFAF6497E3
S11325002D962FAD2D972F2965962FAF65972E9673
S11325103FAD2E97302B66963FAF66972F964FAD03
S11325202F97412B67964FAF6797AA24BB24CC24DF
S1132530DD24EE24FF2400E2252D392D4A2D5B2DC8
S11325406C2D7D2D8E2D9F2D0E94423768962FAFC6
S1132550689769963FAF69976A964FAF6A976B968B
S11325605FAF6B976C966FAF6C976D967FAF6D97FF
S11325706E968FAF6E976F969FAF6F9708E2242D7C
S1132580392D4A2D5B2D6C2D7D2D8E2D9F2D0E9476
S11325904237A22EB32EC42ED52EE62EF72E082FA8
S11325A0192F68965FAD68975A29A0965FAFA097D8
S11325B069968FAD69978B29A1968FAFA1976A967B
S11325C09FAD6A979C29A2969FAFA2976B96AFADD9
S11325D06B97AD29A396AFAFA3976C96BFAD6C97DD
S11325E0BE29A496BFAFA4976D96EFAD6D97EF2962
S11325F0A596EFAFA5976E96FFAD6E97F02BA696B6
S1132600FFAFA6976F962FAD6F97212BA7962FAF8D
S1132610A797AA24BB24CC24DD24EE24FF2400E1C4
S1132620232D392D4A2D5B2D6C2D7D2D8E2D9F2D27
S11326300E944237A0962FACA097222AA1963FACC5
S1132640A197332AA2964FACA297442AA3965FACD3
S1132650A397552AA4966FACA497662AA5967FAC37
S1132660A597772AA6968FACA697882AA7969FAC9B
S1132670A797992A2A8D30E040E050E060E070E0AE
S113268080E090E0A22CA22AB32CB32AC42CC42A42
S1132690D52CD52AE62CE62AF72CF72A082D082B68
S11326A0192D192B60962FAD60972A2961963FAD9D
S11326B061973B2962964FAD62974C2963965FAD53
S11326C063975D2964966FAD64976E2965967FADB7
S11326D065977F2966968FAD6697802B67969FAD29
S11326E06797912B293871F4313461F4433E51F4E6
S11326F0563941F4623231F47E3B21F48B3211F4C9
S1132700953579F08B899C89AD89BE898055934C28
S1132710A040B04030F48FB7F89499272BB334E03D
S113272005C08FB7F89499272BB332E023272BBB2E
S11327308FBF10920C013FB7F8944B8D5C8D4115FF
S1132740510521F0509303014093020180919101BE
S1132750853039F482E08093910110928C011092BB
S11327608B0120910D01223009F087C08091040172
S1132770843019F085E08093040181E080930D0199
S11327809FB7F8948091CD018F3FA1F48091D90136
S1132790823009F04FC20EC082E08093CA01809358
S11327A0D90108C0E091D901FF27E553FE4F2083EA
S11327B02093D901892F99278FBF5FC02FB7F89431
S11327C0332780918E018093070183E080930F016A
S11327D02FBF80910701882309F06BC282E08093A8
S11327E0B3011092BA013FB7F8949091D701892FA1
S11327F08E7F8093D70187B120E082958695869558
S1132800837009F021E081E02827220F9C7F922B1E
S113281093789093D70117B880919701909198017C
S113282051E08638950718F087E090E01FC0833C9C
S1132830910518F086E090E019C08136910518F0F2
S113284085E090E013C08033910518F084E090E0B7
S11328500DC08831910518F083E090E007C00C9713
S113286018F082E090E002C080E090E08770987DEC
S1132870982B986D892F992786B9832F992730C172
S11328801092B30116C221E0E0E5F1E09091C90194
S1132890822F892339F011821082822F8095982308
S11328A09093C901329681E0E036F80709F401C239
S11328B0220FECCFE0910A01FF27EE0FFF1FE05B30
S11328C0FE4F1182108210920A01A0915001B09122
S11328D05101B88FAF8BAB2B21F08091C90180FFE0
S11328E0BBC181E080930A01E4C1809191018823F6
S11328F049F49FBF9FB7F8948091D6018F3F09F0A8
S1132900EDC0D9C08091DD0182608093DD01EF8943
S1132910F88D4483F0935A01E09359019FBFFFB7A8
S1132920F98FF894809194018260809394012091AE
S11329300D012430E9F49FB7F8948091CF018F3FC3
S1132940A1F48091D901843009F07AC10EC084E0E9
S11329508093CA018093D90108C0E091D901FF276F
S1132960E553FE4F20832093D901892F99278FBFE8
S11329708091940180FD60C020908701309088018F
S11329804090890150908A01662477248824FEE4CB
S1132990AF2EE3E8BE2ECC24DD24EE24FF2400E099
S11329A010E0222D332D442D552D662D772D882DA5
S11329B090E00E94C135A8962FAFA897A9963FAF83
S11329C0A997AA964FAFAA97AB965FAFAB97AC9671
S11329D06FAFAC97AD967FAFAD97AE968FAFAE9716
S11329E0AF969FAFAF97822E932EA42EB52E2401BF
S11329F0350100E20E94BF36A22EB32EC42ED52E7E
S1132A00D301C201B695A795979587958A0D9B1D0D
S1132A10AC1DBD1DB7FF04C0BF770196A11DB11D3C
S1132A208093870190938801A0938901B0938A01D0
S1132A308F719070019602C081E090E09093B9018B
S1132A408093B801AF89B88D9596EF89F88D85A1EB
S1132A5026A19927782F66273327622B732B77FDBE
S1132A6005C0609153017091540102C06095709546
S1132A70FD0111821C926115710529F466E070E074
S1132A8080E090E010C08827992726E632E040E0F5
S1132A9050E00E94CC37672F782F892F99276A5EE0
S1132AA07F4F8F4F9F4F7093B0016093AF01F98DAB
S1132AB08F2F992715C08091D9018B3009F0C6C09A
S1132AC00DC08BE08093CA0107C0E091D901FF27B4
S1132AD0E553FE4F8BE080838093D901892F99279A
S1132AE08FBFE7C08091CA018F3F11F00C94740727
S1132AF00C946E078091CA018F3F11F00C94D20997
S1132B000C94CC097093040180910F01882311F473
S1132B100C94C30A0C94E10A9093B3011092BA0185
S1132B203FB7F8949091D701892F8E7F8093D70176
S1132B3087B120E0829586958695837009F021E01F
S1132B4027272170220F9C7F922B93789093D70193
S1132B5017B8809197019091980121E086389207E7
S1132B6010F40C94E60A87E090E00C94050B809135
S1132B70CA018F3F11F00C94240B0C94200B20936A
S1132B80B3011092BA013FB7F8949091D701892FFD
S1132B908E7F8093D70187B120E0829586958695B4
S1132BA0837009F021E081E02827220F9C7F922B7B
S1132BB093789093D70117B88091970190919801D9
S1132BC041E08638940710F40C94790B87E090E088
S1132BD00C94980B8091CA018F3F11F00C94B70BA1
S1132BE00C94B30B8091CA018F3F11F00C940A0D21
S1132BF00C94060D8091CA018F3F11F00C94F30DD3
S1132C000C94F00D8091CA018F3F09F02AC925C99F
S1132C108091CA018F3F09F089C986C98091CA0190
S1132C208F3F09F0B6C9B1C98091CA018F3F09F03D
S1132C3037CA32CA8091CA018F3F09F0B3CDACCDF7
S1132C408091CA018F3F09F088CE81CE8091CA015C
S1132C508F3F09F03ACF35CFAF89B88D8C91FD0104
S1132C6021819927982F88273327822B932B4481FE
S1132C708183892F992780832FB7F89433278091F4
S1132C800801909109012FBF8383892F992782839B
S1132C9082E285838FB7F894982F8091DD0181FDBE
S1132CA028CE23CE71E00C94B40671E00C94120982
S1132CB02FBFC259DF4F0FB6F894DEBF0FBECDBF92
S1132CC0DF91CF911F910F91FF90EF90DF90CF9004
S1132CD0BF90AF909F908F907F906F905F904F9038
S1132CE03F902F900895CAE8D0E1DEBFCDBF2FB743
S1132CF02FA3F8944CE050E06FEF70E08BEC91E080
S1132D000E94C5378FEF8093CA018093D90181E077
S1132D108EBD88E080BF83E083BF8CB59DB54AE754
S1132D202CB53DB52817390708F44150442311F058
S1132D30C901F6CF92B782B78917E9F32CB53DB52F
S1132D4092B782B78917E9F38CB59DB5821B930BB3
S1132D50409605E0969587950A95E1F7909398013A
S1132D608093970113BE83B78EBD8EB580BF12BE0C
S1132D701DBC1CBC8FEF86BF86B780937C0080B7D8
S1132D80992787709070892BD1F7D29AD19AD09ACB
S1132D90DA9AD99AD89A15BA8FEF84BBD498DC986A
S1132DA016B8D6988C9A8E9A8F9A949A979A969ADD
S1132DB06FE380E00E94BD0160E08BE00E94BD01F2
S1132DC0B998BF98BB98BA9880E285BF8091CA0130
S1132DD08F3FE9F09091CA01E091CA01FF27E553C2
S1132DE0FE4F80818093CA018091CA018F3F11F404
S1132DF08093D901292F3327F901E553FE4F8FEF33
S1132E0080832F3F21F0822F0E94E605DFCF80913F
S1132E100001909101010196AA27BB2780938701A5
S1132E2090938801A0938901B0938A01109257016D
S1132E308091DD0181608093DD016B986A986F9ABF
S1132E406E9A6AE380E00E94BD016BE380E00E9419
S1132E50BD0180ED97E0019701960197E1F780E8C5
S1132E608093920160E88BE00E94BD0160E984E0F8
S1132E700E94BD0160E08FE00E94BD016FE680E129
S1132E800E94BD0165E581E10E94BD0161E083E12D
S1132E900E94BD0111E0E12EF12C00EC12E0F801DA
S1132EA0C895602D8E2D0E94BD010894E11CF11C73
S1132EB00F5F1F4FFDE0EF16F10489F701ED12E0FB
S1132EC0F801C895602D82E10E94BD0109501040AF
S1132ED0F801C895802D80939601065F1F4FF80175
S1132EE0C895802D8093C80108501040F801C895FA
S1132EF0802D8093920160E08BE00E94BD016FE31E
S1132F0082E40E94BD0161E180E00E94BD0166EAA5
S1132F108EE00E94BD0194988CE120E030E087FFB0
S1132F2002C0979A01C097989698969A2F5F3F4F40
S1132F302730310511F0880FF2CF97989698969A1A
S1132F408F98949A80E096989927879B04C0880F5D
S1132F50991F816001C0880F969A21503040FFEF7D
S1132F602F3F3F0781F7949A8F9A979A83FFD3CF85
S1132F7066E28EE00E94BD0161EE80E00E94BD0128
S1132F806091C80189E00E94BD0160E08BE00E946D
S1132F90BD0166EA8EE00E94BD0194988CE120E0B8
S1132FA030E087FF02C0979A01C097989698969A46
S1132FB02F5F3F4F2730310511F0880FF2CF9798DC
S1132FC09698969A8F98949A80E096989927879BDA
S1132FD004C0880F991F816001C0880F969A215000
S1132FE030404FEF2F3F340781F7949A8F9A979A86
S1132FF083FFD3CF66E28EE00E94BD010E9480056C
S11330006FE380E00E94BD0160E08BE00E94BD019F
S1133010EDE9F1E080E291E08193919351E0EF3AA0
S1133020F507D1F780B7886080BF8BE083BF86EE59
S113303081BF87B7826087BF8FB7F894282F332763
S1133040E22F91B782B746B7981711F40C94142065
S113305041FF02C00C9414208091BB01882309F421
S113306060C06FB7F89482B72091B4013091B50174
S11330704091B6015091B70106B601FE0FC081B769
S113308092B7280F311D411D511D2F5F3F4F4F4FE8
S11330905F4F290F311D411D511D04C0280F311DE3
S11330A0411D511D862F99278FBFE0909901F09003
S11330B09A0100919B0110919C018091BC01909117
S11330C0BD01A091BE01B091BF012E193F09400B73
S11330D0510B281739074A075B0720F01092BB01F0
S11330E071E020C0A8019701280F391F4A1F5B1FF8
S11330F08091B4019091B501A091B601B091B7014E
S1133100281B390B4A0B5B0B273E31054105510542
S113311040F4822F223010F070E005C070E082E0AD
S113312002C070E086EE682F615000B601FCFDCF4E
S11331300C948320E091D901FF27E553FE4F1082C0
S11331401092D901892F99278FBF8091CA018F3F8F
S113315011F40C9460289091CA01E091CA01FF27F0
S1133160E553FE4F80818093CA018091CA018F3F4D
S113317011F48093D901292F3327F901E553FE4F28
S11331808FEF8083122F2F3F11F40C946028253089
S113319011F40C944D23263098F4223011F40C943D
S11331A0B920233028F4222361F1213071F668C25A
S11331B0233011F40C94FE21243039F60C945F2250
S11331C0283011F40C94C126293048F4263011F427
S11331D00C94CA23273009F0B8CF0C94F2232A3078
S11331E049F02A3010F40C942A272B3009F0ADCF83
S11331F00C9446278091C901882311F00C942E2742
S1133200A4CF80914E01882309F043C0E090C4010B
S1133210F090C5010091C6011091C7016FB7F894F1
S113322077272091990130919A0140919B01509107
S11332309C018091BC019091BD01A091BE01B0910F
S1133240BF01280F391F4A1F5B1F6FBFE092C401E3
S1133250F092C5010093C6011093C70110924E016C
S11332606FB7F894772781E08093BB01209399018D
S113327030939A0140939B0150939C01E092BC01CE
S1133280F092BD010093BE011093BF016FBF0E9475
S1133290F2016FB7F89482B72091B4013091B5016F
S11332A04091B6015091B70106B601FE0FC081B737
S11332B092B7280F311D411D511D2F5F3F4F4F4FB6
S11332C05F4F290F311D411D511D04C0280F311DB1
S11332D0411D511D2BA33CA34DA35EA3862F99270B
S11332E08FBF70E089E0789FF0011124E45CFE4F09
S11332F0608561FFC0C12081318142815381E480B6
S1133300F580068117818BA19CA1ADA1BEA1821B72
S1133310930BA40BB50B8E159F05A007B10708F4FA
S1133320AAC160FF03C06D7F608708C02E0D3F1DDA
S1133330401F511F2083318342835383772321F01D
S1133340713009F098C15CC180910C01882311F09F
S11333500C94522A40E151E08091140180930400BE
S113336084EC80931A0187E08093190181EA8093A9
S1133370180183EF809317018FEF809311018093DD
S1133380100123E92093160180915001909151017D
S1133390892B11F00C94522A5093510140935001FF
S11333A064E06093140180910A01882309F4F7C052
S11333B010920A018FEF9FEF809311018FEF90E03D
S11333C0809310012FB7F8943327809108019091CE
S11333D009012FBF80931301892F9927809312012C
S11333E082E2809315018FB7F894282F33279091A8
S11333F0DD0191FD04C080919101882351F42FBF18
S113340081E080930A0110925101109250010C94B2
S1133410522A92609093DD016093140150935A01F3
S1133420409359012FBF8FB78AA3F89480919401D8
S113343082608093940120910D012430F1F49FB7B0
S1133440F8948091CF018F3FA9F48091D901843001
S113345011F00C9459290EC084E08093CA01809322
S1133460D90108C0E091D901FF27E553FE4F20831D
S11334702093D901892F99278FBF8091940180FDD2
S113348050C020908701309088014090890150906D
S11334908A01662477248824EEE4AE2E73E8B72EDE
S11334A0CC24DD24EE24FF2400E010E0222D332D73
S11334B0442D552D662D772D882D90E00E94C13521
S11334C02EA73FA748AB59AB6AAB7BAB8CAB9DAB8C
S11334D0822E932EA42EB52E2401350100E20E94E3
S11334E0BF36A22EB32EC42ED52ED301C201B6955B
S11334F0A795979587958A0D9B1DAC1DBD1DB7FF9C
S113350004C0BF770196A11DB11D809387019093DC
S11335108801A0938901B0938A018F7190700196FC
S113352002C081E090E09093B9018093B80180914A
S113353035019927782F6627809136019927682BC2
S1133540792B77FD05C0609153017091540102C03D
S113355060957095E5E3F1E01182109235016115F3
S1133560710529F466E070E080E090E010C08827DF
S1133570992726E632E040E050E00E94CC37672FDE
S1133580782F892F99276A5E7F4F8F4F9F4F7093B3
S1133590B0016093AF01AAA18A2F99278FBF81E060
S11335A080930C016FB7F89482B72091B4013091E5
S11335B0B5014091B6015091B70106B601FE0FC0A6
S11335C081B792B7280F311D411D511D2F5F3F4F09
S11335D04F4F5F4F290F311D411D511D04C0280F4E
S11335E0311D411D511D862F99278FBF2093C00186
S11335F03093C1014093C2015093C3010C94522AE9
S11336008FB7F894082F1127F02E80910D01843084
S1133610B9F08530F9F0813051F590E08091910155
S1133620833009F491E0992311F5809104018430E9
S113363019F085E08093040181E00E94F80317C02B
S113364085E080930D011092D80169E380E00E9427
S1133650BD010DC00E94800583E00E94F80380E54F
S113366090E0019701960197E1F70FBF0FC70E9401
S1133670B402FFBE0BC77F5F723008F433CE06C7B7
S11336806FB7F89482B72091B4013091B50140919D
S1133690B6015091B70106B601FE0FC081B792B7CB
S11336A0280F311D411D511D2F5F3F4F4F4F5F4F5D
S11336B0290F311D411D511D04C0280F311D411D0D
S11336C0511D2D8F3E8F4F8F58A3862F99278FBF63
S11336D08FB7F89499271092BB018FBF8091440152
S11336E081FF27C080913C0190913D01A0913E0152
S11336F0B0913F012D8D3E8D4F8D58A1281B390B64
S11337004A0B5B0BE0904001F090410100914201B3
S113371010914301E21AF30A040B150B3FEFE31671
S11337203FEFF3063FEF03073FE7130711F061E0B4
S113373009C03FEFE32E3FEFF32E3FEF032F3FE7A8
S1133740132F60E080914D0181FF26C080914501D7
S113375090914601A0914701B09148012D8D3E8D75
S11337604F8D58A1281B390B4A0B5B0BDA01C90199
S11337702091490130914A0140914B0150914C01F3
S1133780281B390B4A0B5B0B2E153F0540075107CD
S11337901CF479018A0103C0662309F4D6CC1E14F3
S11337A01F04100611060CF40EC470E089E0789F23
S11337B0F0011124E45CFE4F608561FFFFC32081AA
S11337C0318142815381E480F580068117818D8D9A
S11337D09E8DAF8DB8A1821B930BA40BB50B8E15D8
S11337E09F05A007B10708F4E9C360FF03C06D7F1C
S11337F0608708C02E0D3F1D401F511F2083318359
S113380042835383772321F0713009F0D7C35CC11D
S113381080910C01882311F00C94552A40E151E069
S1133820809114018093040084EC80931A0187E052
S11338308093190181EA8093180183EF8093170123
S11338408FEF809311018093100123E920931601D7
S11338508091500190915101892B11F00C94552ABB
S1133860509351014093500164E06093140180919E
S11338700A01882309F4F7C010920A018FEF9FEF21
S1133880809311018FEF90E0809310012FB7F8948B
S1133890332780910801909109012FBF8093130170
S11338A0892F99278093120182E2809315018FB7A3
S11338B0F894282F33279091DD0191FD04C0809165
S11338C09101882351F42FBF81E080930A01109263
S11338D05101109250010C94552A92609093DD018D
S11338E06093140150935A01409359012FBF3FB77D
S11338F039A3F8948091940182608093940120917B
S11339000D012430F1F49FB7F8948091CF018F3FDB
S1133910A9F48091D901843011F00C9461290EC06E
S113392084E08093CA018093D90108C0E091D90151
S1133930FF27E553FE4F20832093D901892F992730
S11339408FBF8091940180FD50C0209087013090FA
S113395088014090890150908A0166247724882444
S11339609EE4A92E83E8B82ECC24DD24EE24FF2483
S113397000E010E0222D332D442D552D662D772D9A
S1133980882D90E00E94C1352EAB3FAB48AF59AFB4
S11339906AAF7BAF8CAF9DAF822E932EA42EB52E33
S11339A02401350100E20E94BF36A22EB32EC42E9C
S11339B0D52ED301C201B695A795979587958A0D03
S11339C09B1DAC1DBD1DB7FF04C0BF770196A11D93
S11339D0B11D8093870190938801A0938901B093CE
S11339E08A018F719070019602C081E090E09093FB
S11339F0B9018093B801809135019927782F662702
S1133A00809136019927682B792B77FD05C0609149
S1133A1053017091540102C060957095E5E3F1E0A3
S1133A201182109235016115710529F466E070E088
S1133A3080E090E010C08827992726E632E040E035
S1133A4050E00E94CC37672F782F892F99276A5E20
S1133A507F4F8F4F9F4F7093B0016093AF0149A187
S1133A60842F99278FBF81E080930C016FB7F8945E
S1133A7082B72091B4013091B5014091B6015091C3
S1133A80B70106B601FE0FC081B792B7280F311DEA
S1133A90411D511D2F5F3F4F4F4F5F4F290F311D68
S1133AA0411D511D04C0280F311D411D511D862F7C
S1133AB099278FBF2093C0013093C1014093C20165
S1133AC05093C3010C94552A8FB7F894182F809102
S1133AD00D01843009F497C0853009F49EC081300B
S1133AE009F02EC190E080919101833009F491E0B6
S1133AF0992309F030C180910401843011F40C94AD
S1133B00692985E0809304017093520119C192E000
S1133B1090930F0110928E01379A809107018130A2
S1133B2029F41092070183E080930F01809107012B
S1133B30882311F40C94732970930F0110928E0151
S1133B40379A813009F0FCC02FC08091570180FF63
S1133B5056C0F6C0833C910518F086E090E019C089
S1133B608136910518F085E090E013C0803391050B
S1133B7018F084E090E00DC08831910518F083E0DE
S1133B8090E007C00C9718F082E090E002C080E05B
S1133B9090E0877059A5587D852B886D89A7992752
S1133BA086B9832F992720C080910F018130F1F4C9
S1133BB09FB7F8948091D3018F3FA1F48091D901EC
S1133BC0883011F00C94A2290DC088E08093CA01BA
S1133BD007C0E091D901FF27E553FE4F88E08083B9
S1133BE08093D901892F99278FBFAAC0823009F009
S1133BF0A7C01092070183E080930F01A1C08160E8
S1133C00809357019DC085E080930D011092D801E7
S1133C1069E380E00E94BD0193C00E948005809109
S1133C200401843009F082C093E0909304018091F0
S1133C300F018823F1F422E020930F0110928E01EA
S1133C40379A80910701813021F4109207019093F3
S1133C500F0190910701992311F40C94AA2981E092
S1133C6080930F0110928E01379A913009F061C050
S1133C702FC08091570180FF55C05BC0833C9105E4
S1133C8018F086E090E019C08136910518F085E0BF
S1133C9090E013C08033910518F084E090E00DC0EB
S1133CA08831910518F083E090E007C00C9718F074
S1133CB082E090E002C080E090E087709BA5987D50
S1133CC0892B886D8BA7992786B9832F992720C0C4
S1133CD080910F018130F1F49FB7F8948091D30162
S1133CE08F3FA1F48091D901883011F00C94D92927
S1133CF00DC088E08093CA0107C0E091D901FF2775
S1133D00E553FE4F88E080838093D901892F99275A
S1133D108FBF0FC0823069F41092070183E0809353
S1133D200F0107C081608093570103C083E0809333
S1133D30520180E590E0019701960197E1F73CC1BB
S1133D4080910D01843009F4DDC0853009F4A9C0E7
S1133D50813009F031C180914D0181FD2DC190E088
S1133D6080918D018F3108F091E0992309F468C0A6
S1133D708091530190915401892B89F56FB7F89480
S1133D8082B72091B4013091B5014091B6015091B0
S1133D90B70106B601FE0FC081B792B7280F311DD7
S1133DA0411D511D2F5F3F4F4F4F5F4F290F311D55
S1133DB0411D511D04C0280F311D411D511D862F69
S1133DC099278FBF209345013093460140934701C3
S1133DD05093480180E09AE0A0E0B0E0C6C06FB71D
S1133DE0F89482B72091B4013091B5014091B601A5
S1133DF05091B70106B601FE0FC081B792B7280FE4
S1133E00311D411D511D2F5F3F4F4F4F5F4F290FF4
S1133E10311D411D511D04C0280F311D411D511D6F
S1133E20862F99278FBF20934501309346014093F5
S1133E304701509348018EE190E0A0E0B0E095C0C6
S1133E406FB7F89482B72091B4013091B5014091D5
S1133E50B6015091B70106B601FE0FC081B792B703
S1133E60280F311D411D511D2F5F3F4F4F4F5F4F95
S1133E70290F311D411D511D04C0280F311D411D45
S1133E80511D862F99278FBF2093450130934601FA
S1133E90409347015093480180E098E0A0E0B0E0EF
S1133EA064C06FB7F89482B72091B4013091B50122
S1133EB04091B6015091B70106B601FE0FC081B71B
S1133EC092B7280F311D411D511D2F5F3F4F4F4F9A
S1133ED05F4F290F311D411D511D04C0280F311D95
S1133EE0411D511D862F99278FBF20934501309383
S1133EF04601409347015093480181E090E0A0E0DF
S1133F00B0E033C06091530170915401EFB7F8945D
S1133F1082B72091B4013091B5014091B60150911E
S1133F20B70106B601FE0FC081B792B7280F311D45
S1133F30411D511D2F5F3F4F4F4F5F4F290F311DC3
S1133F40411D511D04C0280F311D411D511D8E2FCF
S1133F5099278FBF20934501309346014093470131
S1133F6050934801CB01AA27BB27E5E4F1E0848301
S1133F709583A683B78380914D01836080879FB723
S1133F80F8948091CC018F3FA1F48091D9018130C4
S1133F9011F00C94E1290DC081E08093CA0107C09F
S1133FA0E091D901FF27E553FE4F81E080838093A0
S1133FB0D901892F99278FBF1FBF68C27F5F7230D5
S1133FC008F4F4CB63C2E092C401F092C5010093FB
S1133FD0C6011093C70121E020934E018FB7F894D6
S1133FE099272093BB012D8D3E8D4F8D58A1209391
S1133FF0990130939A0140939B0150939C01E09264
S1134000BC01F092BD010093BE011093BF018FBFAC
S11340108FB7F894282F3327E22F91B782B746B78A
S1134020981711F041FF03C02FBF0C94A51880917D
S1134030BB01882309F460C06FB7F89482B720915C
S1134040B4013091B5014091B6015091B70106B663
S113405001FE0FC081B792B7280F311D411D511DBC
S11340602F5F3F4F4F4F5F4F290F311D411D511D92
S113407004C0280F311D411D511D862F99278FBF64
S1134080E0909901F0909A0100919B0110919C019C
S11340908091BC019091BD01A091BE01B091BF017E
S11340A02E193F09400B510B281739074A075B07A4
S11340B020F01092BB0171E020C0A8019701280FE5
S11340C0391F4A1F5B1F8091B4019091B501A091E3
S11340D0B601B091B701281B390B4A0B5B0B273E85
S11340E031054105510540F4822F223010F070E073
S11340F005C070E082E002C070E086EE682F615077
S113410000B601FCFDCF82B7681709F46F5F2091F8
S1134110B4013091B5014091B6015091B701DA0173
S1134120C9010196A11DB11D860F911DA11DB11DCF
S113413082179307A407B50710F4622F609561BF37
S1134140EFBF772311F40C94A5189FB7F8948091CE
S1134150CB018F3F11F00C94A2188091D9018823D0
S113416011F40C94A2180C94E9291092CA010C942D
S1134170A0181FB7F89480910D01843009F4DDC0B4
S1134180853009F4A9C0813009F034C180914D0112
S113419081FD30C190E080918D018F3108F091E074
S11341A0992309F468C08091530190915401892B9B
S11341B089F56FB7F89482B72091B4013091B501B5
S11341C04091B6015091B70106B601FE0FC081B708
S11341D092B7280F311D411D511D2F5F3F4F4F4F87
S11341E05F4F290F311D411D511D04C0280F311D82
S11341F0411D511D862F99278FBF20934501309370
S11342004601409347015093480180E09AE0A0E0C2
S1134210B0E0C6C06FB7F89482B72091B401309172
S1134220B5014091B6015091B70106B601FE0FC029
S113423081B792B7280F311D411D511D2F5F3F4F8C
S11342404F4F5F4F290F311D411D511D04C0280FD1
S1134250311D411D511D862F99278FBF2093450184
S11342603093460140934701509348018EE190E01A
S1134270A0E0B0E095C06FB7F89482B72091B40184
S11342803091B5014091B6015091B70106B601FED7
S11342900FC081B792B7280F311D411D511D2F5FEB
S11342A03F4F4F4F5F4F290F311D411D511D04C01A
S11342B0280F311D411D511D862F99278FBF209333
S11342C0450130934601409347015093480180E0F3
S11342D098E0A0E0B0E064C06FB7F89482B7209192
S11342E0B4013091B5014091B6015091B70106B6C1
S11342F001FE0FC081B792B7280F311D411D511D1A
S11343002F5F3F4F4F4F5F4F290F311D411D511DEF
S113431004C0280F311D411D511D862F99278FBFC1
S1134320209345013093460140934701509348013F
S113433081E090E0A0E0B0E033C06091530170915F
S11343405401EFB7F89482B72091B4013091B501CC
S11343504091B6015091B70106B601FE0FC081B776
S113436092B7280F311D411D511D2F5F3F4F4F4FF5
S11343705F4F290F311D411D511D04C0280F311DF0
S1134380411D511D8E2F99278FBF209345013093D6
S113439046014093470150934801CB01AA27BB270C
S11343A08093490190934A01A0934B01B0934C012F
S11343B080914D01836080934D019FB7F894809163
S11343C0CC018F3FA1F48091D901813011F00C947C
S11343D0F1290DC081E08093CA0107C0E091D901A1
S11343E0FF27E553FE4F81E080838093D901892F15
S11343F099278FBF812F99270C94A4188FB7F8940D
S1134400992720910D018FBF222311F40C94A51834
S11344106FB7F89482B72091B4013091B5014091FF
S1134420B6015091B70106B601FE0FC081B792B72D
S1134430280F311D411D511D2F5F3F4F4F4F5F4FBF
S1134440290F311D411D511D04C0280F311D411D6F
S1134450511D862F99278FBF20933C0130933D0136
S113446040933E0150933F0188E893E1A0E0B0E01F
S11344708093400190934101A0934201B093430182
S1134480809144018E7F8260809344019FB7F894A9
S11344908091CC018F3F11F00C94A2188091D90126
S11344A0813011F00C94F9290C94A21881E0FAC51A
S11344B0E091D901FF27E553FE4F81E0FCC50FB71A
S11344C0F8948091940181FD06C0809153019091EC
S11344D05401892B79F580910D018450823008F0C4
S11344E0AEC080910401843019F085E0809304010A
S11344F081E080930D019FB7F8948091CD018F3FA7
S1134500A1F48091D901823011F00C94012A0DC0DC
S113451082E08093CA0107C0E091D901FF27E553E7
S1134520FE4F82E080838093D901892F99278FBF22
S113453021E086C090E080918D018F3108F091E0F8
S1134540992309F47CC090E080919101833009F4AF
S113455091E0992309F073C06FE380E00E94BD01EC
S113456060E08BE00E94BD0181E0809391016F982F
S1134570B89AC09880910401843019F085E0809342
S1134580040110930D016091530170915401EFB730
S1134590F89482B72091B4013091B5014091B601ED
S11345A05091B70106B601FE0FC081B792B7280F2C
S11345B0311D411D511D2F5F3F4F4F4F5F4F290F3D
S11345C0311D411D511D04C0280F311D411D511DB8
S11345D08E2F99278FBF2093450130934601409336
S11345E0470150934801CB01AA27BB278093490177
S11345F090934A01A0934B01B0934C0180914D01DB
S1134600836080934D019FB7F8948091CC018F3FD4
S113461099F48091D901813009F0FBC60DC081E085
S11346208093CA0107C0E091D901FF27E553FE4FEB
S113463081E080838093D901892F99278FBF20E05F
S1134640802F99278FBF222311F40C94A5186BE3B4
S113465080E00E94BD0180ED97E0019701960197EB
S1134660E1F769E380E00E94BD0188EC90E00197E6
S113467001960197E1F70FB7F894112782E0809330
S1134680910110928C0110928B010E948005BB98BD
S1134690BA9880EC8DB9B8987AC08FB7F8949927F6
S11346A020918F01309190018FBF80915801E82FA4
S11346B0FF27EE0FFF1FE356FE4F318320838F5FEA
S11346C080935801893010F01092580180918D0127
S11346D08F3118F48F5F80938D01DE011196EDE91F
S11346E0F1E082E101900D928150E1F760E08E01EA
S11346F00F5F1F4F41E050E0DE011396E52FFF27C7
S1134700EE0FFF1FE00FF11F2D913C911197808157
S113471091818217930708F4542F4F5F1296493002
S113472069F7E52FFF27633041F0EE0FFF1FE00F1D
S1134730F11F118210826F5FDDCF609105017091CE
S113474006018827992735E0660F771F881F991F70
S11347503A95D1F7EE0FFF1FE00FF11F2081318151
S113476044275527220F331F441F551F620F731F01
S1134770841F951F0FB7F894112722E230E040E020
S113478050E00E94EB3730930601209305010FBFE0
S11347900C94A5182FB7F8943327409159015091E0
S11347A05A018091DD018D7F8093DD0182E0809349
S11347B0910110928C0110928B012FBF80910A01FC
S11347C0882311F00C94A518809150019091510107
S11347D08417950711F00C94A518109251011092AA
S11347E050016BC38FB7F894282F33278091910120
S11347F0853009F019CC40910201509103015C8F7E
S11348004B8F2FBF7A0187E090E0E80EF91EFA0182
S1134810A481808141812FB7F894332760910801E6
S1134820709109012FBF9927982F88275527842B2A
S1134830952B8617970761F0808121819927982FFE
S113484088273327822B932B8F5F9F4F09F056C203
S1134850EB8DFC8D8681823909F050C2AC3009F0B1
S11348604DC26FB7F89482B72091B4013091B5016D
S11348704091B6015091B70106B601FE0FC081B751
S113488092B7280F311D411D511D2F5F3F4F4F4FD0
S11348905F4F290F311D411D511D04C0280F311DCB
S11348A0411D511D862F99278FBF8091C001909182
S11348B0C101A091C201B091C301281B390B4A0B5D
S11348C05B0B2B8B3C8B4D8B5E8B2093C001309309
S11348D0C1014093C2015093C301F7018481158142
S11348E046805780708431846284E384EA8E9924FC
S11348F0AA24BB24CC24DD24EE24FF2408E3282F9F
S1134900392D4A2D5B2D6C2D7D2D8E2D9F2D0E94D2
S113491042372EAF3FAF21964FAF219722965FAF1C
S1134920229723966FAF239724967FAF24972596DB
S11349308FAF259726969FAF269700E3212F392D19
S11349404A2D5B2D6C2D7D2D8E2D9F2D0E9442377F
S1134950082F192FFEADF22B2796FFAF27972FAD07
S1134960232B28962FAF289721963FAD2197342BE0
S113497029963FAF299722964FAD2297452B2A9629
S11349804FAF2A9723965FAD2397562B2B965FAF95
S11349902B9724968FAD2497872B2C968FAF2C972B
S11349A025969FAD2597902B2D969FAF2D972696F4
S11349B0AFAD2697A12B2E96AFAF2E97AA24BB247A
S11349C0CC24DD24EE24FF2408E1272D392D4A2DA3
S11349D05B2D6C2D7D2D8E2D9F2D0E9442372796A9
S11349E0BFAD2797B22B2F96BFAF2F972896EFAD69
S11349F02897E32B6096EFAF60972996FFAD299730
S1134A00F42B6196FFAF61972A962FAD2A97252B39
S1134A1062962FAF62972B963FAD2B97362B6396FA
S1134A203FAF63972C964FAD2C97472B64964FAFAF
S1134A3064972D965FAD2D97582B65965FAF65975C
S1134A402E968FAD2E97892B66968FAF6697AA24E4
S1134A50BB24CC24DD24EE24FF2408E0262D392DAC
S1134A604A2D5B2D6C2D7D2D8E2D9F2D0E9442375E
S1134A70A22EB32EC42ED52EE62EF72E082F192FD4
S1134A802F969FAD2F979A2967969FAF6797609649
S1134A90AFAD6097AB296896AFAF68976196BFAD2D
S1134AA06197BC296996BFAF69976296EFAD62972B
S1134AB0ED296A96EFAF6A976396FFAD6397FE2977
S1134AC06B96FFAF6B9764962FAD64972F296C9606
S1134AD02FAF6C9765963FAD6597302B6D963FAFC2
S1134AE06D9766964FAD6697412B6E964FAF6E9756
S1134AF0AA24BB24CC24DD24EE24FF2400E2252DAB
S1134B00392D4A2D5B2D6C2D7D2D8E2D9F2D0E94D0
S1134B1042376F962FAF6F97A0963FAFA097A1969D
S1134B204FAFA197A2965FAFA297A3966FAFA3973B
S1134B30A4967FAFA497A5968FAFA597A6969FAF8F
S1134B40A69708E2242D392D4A2D5B2D6C2D7D2D41
S1134B508E2D9F2D0E944237A22EB32EC42ED52E09
S1134B60E62EF72E082F192F6F965FAD6F975A29EF
S1134B70A7965FAFA797A0968FADA0978B29A8960D
S1134B808FAFA897A1969FADA1979C29A9969FAF97
S1134B90A997A296AFADA297AD29AA96AFAFAA974F
S1134BA0A396BFADA397BE29AB96BFAFAB97A49610
S1134BB0EFADA497EF29AC96EFAFAC97A596FFADF8
S1134BC0A597F02BAD96FFAFAD97A6962FADA69700
S1134BD0212BAE962FAFAE97AA24BB24CC24DD2480
S1134BE0EE24FF2400E1232D392D4A2D5B2D6C2D5D
S1134BF07D2D8E2D9F2D0E944237A7962FACA7970F
S1134C00222AA8963FACA897332AA9964FACA99715
S1134C10442AAA965FACAA97552AAB966FACAB9779
S1134C20662AAC967FACAC97772AAD968FACAD97DD
S1134C30882AAE969FACAE97992A2A8D30E040E040
S1134C4050E060E070E080E090E0A22CA22AB32C57
S1134C50B32AC42CC42AD52CD52AE62CE62AF72C50
S1134C60F72A082D082B192D192B67962FAD679756
S1134C702A2968963FAD68973B2969964FAD699795
S1134C804C296A965FAD6A975D296B966FAD6B97F9
S1134C906E296C967FAD6C977F296D968FAD6D975D
S1134CA0802B6E969FAD6E97912B293871F4313419
S1134CB061F4433E51F4563941F4623231F47E3B9F
S1134CC021F48B3211F4953579F08B899C89AD8967
S1134CD0BE898055934CA040B04030F48FB7F8940F
S1134CE099272BB334E005C08FB7F89499272BB3D9
S1134CF032E023272BBB8FBF10920C013FB7F894EF
S1134D004B8D5C8D4115510521F050930301409367
S1134D10020180919101853039F482E08093910100
S1134D2010928C0110928B0120910D01223009F018
S1134D308DC080910401843019F085E080930401D2
S1134D4081E080930D019FB7F8948091CD018F3F4E
S1134D50A1F48091D901823009F061C30EC082E0D0
S1134D608093CA018093D90108C0E091D901FF273B
S1134D70E553FE4F20832093D901892F99278FBFB4
S1134D8065C02FB7F894332780918E018093070173
S1134D9083E080930F012FBF80910701882311F0D6
S1134DA00C94A51882E08093B3011092BA013FB726
S1134DB0F8949091D701892F8E7F8093D70187B182
S1134DC020E0829586958695837009F021E081E044
S1134DD02827220F9C7F922B93789093D7011CA6AF
S1134DE050E0852F992787B9809197019091980178
S1134DF0A1E086389A0718F087E090E01FC0833C52
S1134E00910518F086E090E019C08136910518F0FC
S1134E1085E090E013C08033910518F084E090E0C1
S1134E200DC08831910518F083E090E007C00C971D
S1134E3018F082E090E002C080E090E08770BDA5A9
S1134E40B87D8B2B886D8DA7992786B9832F9927D9
S1134E500C94A4181092B3010C94A51821E0E0E579
S1134E60F1E09091C901822F892339F011821082D7
S1134E70822F809598239093C901329631E0E036D1
S1134E80F30711F40C94A518220FEBCFE0910A015B
S1134E90FF27EE0FFF1FE05BFE4F1182108210927E
S1134EA00A014091500150915101588F4F8B452B6D
S1134EB021F08091C90180FFD0C281E080930A0172
S1134EC00C94A51880919101882351F49FBF9FB73A
S1134ED0F8948091D6018F3F11F00C94A218DAC097
S1134EE08091DD0182608093DD01EF89F88D448338
S1134EF0F0935A01E09359019FBFFFB7F98FF894DB
S1134F008091940182608093940120910D0124305A
S1134F10E9F49FB7F8948091CF018F3FA1F4809179
S1134F20D901843009F081C20EC084E08093CA01A3
S1134F308093D90108C0E091D901FF27E553FE4FC2
S1134F4020832093D901892F99278FBF80919401C1
S1134F5080FD60C0209087013090880140908901D5
S1134F6050908A016624772488246EE4A62E53E8A0
S1134F70B52ECC24DD24EE24FF2400E010E0222D05
S1134F80332D442D552D662D772D882D90E00E94CC
S1134F90C135AF962FAFAF97E0963FAFE097E1965C
S1134FA04FAFE197E2965FAFE297E3966FAFE39777
S1134FB0E4967FAFE497E5968FAFE597E6969FAFCB
S1134FC0E697822E932EA42EB52E2401350100E2FD
S1134FD00E94BF36A22EB32EC42ED52ED301C201F9
S1134FE0B695A795979587958A0D9B1DAC1DBD1DFC
S1134FF0B7FF04C0BF770196A11DB11D809387013F
S113500090938801A0938901B0938A018F71907065
S1135010019602C081E090E09093B9018093B801B9
S1135020AF89B88D9596EF89F88D85A126A199272A
S1135030782F66273327622B732B77FD05C0609189
S113504053017091540102C060957095FD01118265
S11350501C926115710529F466E070E080E090E02F
S113506010C08827992726E632E040E050E00E94ED
S1135070CC37672F782F892F99276A5E7F4F8F4F00
S11350809F4F7093B0016093AF01F98D8F2F9927D3
S11350900C94A4188091D9018B3009F0CCC10C94E4
S11350A0A2188BE08093CA0107C0E091D901FF27C1
S11350B0E553FE4F8BE080838093D9010C94A218B2
S11350C02FA1822F99278FBF78948FB7F894282F18
S11350D03327422F80910D01882309F077C091E096
S11350E0909391018091DD018D7F84608093DD0137
S11350F080910401843019F085E080930401909339
S11351000D019FB7F8948091CD018F3F99F4809160
S1135110D901823009F095C10DC082E08093CA01A3
S113512007C0E091D901FF27E553FE4F82E0808359
S11351308093D901892F99278FBF809194018D7F06
S1135140809394014FBF6BE380E00E94BD0180ED2A
S113515097E0019701960197E1F769E380E00E94E7
S1135160BD0188EC90E0019701960197E1F70FB734
S1135170F894112782E08093910110928C0110928F
S11351808B010E948005BB98BA9880EC8DB9B898C1
S11351900FBF9FB7F8948091CE018F3F99F480910F
S11351A0D901833009F053C10DC083E08093CA0153
S11351B007C0E091D901FF27E553FE4F83E08083C8
S11351C08093D901892F99278FBF01C02FBF8FB733
S11351D0F894482F552749C087B799278370907052
S11351E0892B19F4E5E0F0E013C080B799278770A4
S11351F09070892BD1F781B792B7891B8C3030F02E
S113520082B7853F18F4E3E0F0E002C0E2E0F0E0AA
S113521087B7887BC1F480917D008B7FA1F46E9960
S113522012C08AB190919A00892B807C61F480919C
S1135230740082FD08C0379B03C081E090E005C084
S113524085E090E002C080E090E025B78E1708F476
S1135250E82FFF27E457FD4FC895E02D237E2062F9
S1135260E22BE5BF78948895F8948091CA018F3F2A
S113527009F4B2CF9091CA01E091CA01FF27E55326
S1135280FE4F80818093CA018091CA018F3F11F43F
S11352908093D901292F3327F901E553FE4F8FEF6E
S11352A080832F3F09F498CF4FBF822F0E94E605D9
S11352B08ECF8091CA018F3F11F00C94321A0C9456
S11352C02C1A8091CA018F3F11F00C94961C0C94F7
S11352D0901C7093040180910F01882311F40C94A5
S11352E0871D0C94A51D9093B3011092BA013FB78A
S11352F0F8949091D701892F8E7F8093D70187B13D
S113530020E0829586958695837009F021E0272711
S11353102170220F9C7F922B93789093D70118A62B
S113532040E0842F992787B9809197019091980143
S113533051E08638950710F40C94AA1D87E090E09C
S11353400C94C91D8091CA018F3F11F00C94E91D82
S11353500C94E51D2093B3011092BA013FB7F89461
S11353609091D701892F8E7F8093D70187B120E058
S1135370829586958695837009F021E081E028273F
S1135380220F9C7F922B93789093D7011AA6A0E0CA
S11353908A2F992787B98091970190919801B1E05C
S11353A086389B0710F40C943E1E87E090E00C9422
S11353B05D1E8091CA018F3F11F00C947D1E0C94E8
S11353C0791E8091CA018F3F11F00C94D01F0C9468
S11353D0CC1F8091CA018F3F11F00C949A180C9441
S11353E0B5208091CA018F3F11F00C94EE210C94EA
S11353F0EA218091CA018F3F11F00C9458220C9439
S113540056228091CA018F3F11F00C948C220C9487
S113541088228091CA018F3F09F005C900C9809193
S1135420CA018F3F09F0A1CC9ACC8091CA018F3F69
S113543009F081CD7ACD8091CA018F3F09F035CE34
S113544030CE8091CA018F3F09F06BCE66CE809139
S1135450CA018F3F09F0ADCEA8CEEF89F88D8081C7
S113546021819927982F88273327822B932B4481D6
S11354708183892F992780832FB7F89433278091CC
S11354800801909109012FBF8383892F9927828373
S113549082E285838FB7F894982F8091DD0181FD96
S11354A015CD10CD71E00C94721971E00C94D61BDB
S11354B01F920F920FB60F9211242F923F924F9288
S11354C05F926F927F928F929F92AF92BF92CF9290
S11354D0DF92EF92FF920F931F932F933F934F937B
S11354E05F936F937F938F939F93AF93BF93EF9348
S11354F0FF93CF93DF93CDB7DEB72897DEBFCDBF41
S11355005FB1809193018FB96091DD0162FD509587
S113551080919101883009F444C0893098F4843032
S113552009F4E6C3853038F4823009F4DEC18330EF
S113553009F03DC6EDC2863009F40FC5873009F085
S113554036C615C08B3009F477C08C3030F48930FE
S1135550A9F18A3009F02BC661C08D3009F472C1FB
S11355608D3008F4EBC08E3009F021C69CC18091C7
S11355704F018093930180918B0190918C0101964E
S113558090938C0180938B012091AF013091B001F5
S11355908217930708F40BC683E380934F0188E0D6
S11355A004C680914F01809393018CEC80934F014A
S11355B089E0809391018FEF9FEFE7C5A091590196
S11355C0B0915A0180914F018093930120918B01F6
S11355D030918C012F5F3F4F30938C0120938B01CE
S11355E0FD018481992707962817390788F42A0F23
S11355F03B1FF901608160934F018091DB01909121
S1135600DC010E94AF019093DC018093DB01CFC5E4
S11356108091DB0180934F018AE0C7C580914F01DF
S1135620809393018091DB019091DC01892F99276C
S113563080934F018BE013C080914F0180939301BD
S113564080918B0190918C01019690938C018093B1
S11356508B01049708F4ABC560FF08C08CE080930D
S1135660910110928C0110928B01A1C5BB98BA983C
S113567020919601949892E180E097FF02C0979A56
S113568001C097989698969A8F5F873011F0990F7A
S1135690F4CF979A9698969A949A80E027FF02C03E
S11356A0979A01C097989698969A8F5F883011F0D0
S11356B0220FF4CF949A979A969A949896E180E060
S11356C097FF02C0979A01C097989698969A8F5F11
S11356D0873011F0990FF4CF979A9698969A949AE6
S11356E080E097989698969A8F5F8830D1F7949A2D
S11356F0979A969A949880E097989698969A8F5F3E
S11357008730D1F7979A9698969A949A91E180E087
S113571097FF02C0979A01C097989698969A8F5FC0
S1135720883011F0990FF4CF949A979A969A8DE74E
S113573090E0019701960197E1F736C580914F01FA
S11357408093930180918B0190918C0101969093A9
S11357508C0180938B018130910509F068C0BB985E
S1135760BA9820919601949892E180E097FF02C044
S1135770979A01C097989698969A8F5F873011F000
S1135780990FF4CF979A9698969A949A80E027FF67
S113579002C0979A01C097989698969A8F5F88301E
S11357A011F0220FF4CF949A979A969A949896E1CE
S11357B080E097FF02C0979A01C097989698969AAE
S11357C08F5F873011F0990FF4CF979A9698969A35
S11357D0949A80E097989698969A8F5F8830D1F73C
S11357E0949A979A969A949880E097989698969A0D
S11357F08F5F8730D1F7979A9698969A949A91E109
S113580080E097FF02C0979A01C097989698969A5D
S11358108F5F883011F0990FF4CF949A979A969AE3
S11358208DE790E0019701960197E1F7C0C40497D2
S113583008F4BDC48DE0809391011092B2011092DE
S1135840B1010FCF80914F018093930180918B011F
S113585090918C01019690938C0180938B0180919F
S1135860B1019091B20120E0880F991F57FD81602A
S1135870FAEB83389F0709F48DC42F5F283011F0A9
S1135880550FF2CF9093B2018093B10180918B01B7
S113589090918C01429708F48AC4E0915901F091E7
S11358A05A0117A281C49FB7F8948091D1018F3F08
S11358B099F48091D901863009F0ECC30DC086E0DB
S11358C08093CA0107C0E091D901FF27E553FE4F39
S11358D086E080838093D901892F99278FBF809197
S11358E094018D7F8093940116C25A3A19F055356C
S11358F009F0D6C380918B0190918C01019690930D
S11359008C0180938B01039758F083E0809391017D
S113591010928C0110928B011092B2011092B1017D
S113592091E08091940181FF42C480FD57C0992386
S113593009F454C020908701309088014090890177
S113594050908A016624772488244EE4A42E33E8F8
S1135950B32ECC24DD24EE24FF2400E010E0222D1D
S1135960332D442D552D662D772D882D90E00E94E2
S1135970C13529833A834B835C836D837E838F8314
S11359809887822E932EA42EB52E2401350100E291
S11359900E94BF36A22EB32EC42ED52ED301C2012F
S11359A0B695A795979587958A0D9B1DAC1DBD1D32
S11359B0B7FF04C0BF770196A11DB11D8093870175
S11359C090938801A0938901B0938A018F7090709D
S11359D001969093B9018093B801E9C38091B8010D
S11359E09091B901009709F4E2C301979093B9012A
S11359F08093B801892B09F0DAC3809104018430C3
S1135A0019F085E0809304011092D801809104017B
S1135A10843009F079C022E02093040180910F01C1
S1135A208823E9F420930F0110928E01379A809114
S1135A300701813029F41092070183E080930F015C
S1135A4090910701992309F431C381E080930F01F8
S1135A5010928E01379A913009F0A9C32EC080911B
S1135A60570180FF4DC0A3C3833C910518F086E025
S1135A7090E019C08136910518F085E090E013C0DC
S1135A808033910518F084E090E00DC088319105D1
S1135A9018F083E090E007C00C9718F082E090E0E3
S1135AA002C080E090E08770987D982B986D892FD4
S1135AB0992786B9832F992753C180910F0181308B
S1135AC0B1F49FB7F8948091D3018F3F09F046C198
S1135AD08091D901883009F012C340C188E032C1F5
S1135AE0E091D901FF27E553FE4F88E034C18230AD
S1135AF009F05DC31092070183E080930F0157C33F
S1135B0081608093570153C382E0809352014FC355
S1135B105A3A11F0553529F4852F9927982F88275B
S1135B2014C080918B0190918C01019690938C010B
S1135B3080938B018130910569F4252F332780915F
S1135B40B1019091B201822B932B9093B201809377
S1135B50B1012DC3079708F0C9C06091B1017091DC
S1135B60B201962F8827252F3327822B932B9093CE
S1135B70B2018093B101A7E0660F771F57FD616002
S1135B8023E36C3C720709F0ABC0E0910201F09191
S1135B90030184E0809391018CE1848310928C0151
S1135BA010928B011092DC011092DB0180910401B0
S1135BB0843019F085E08093040122E020930D01E4
S1135BC08A2F8770880F880F880F9091DD01977C4A
S1135BD0982B9093DD0180910401843009F07EC0FC
S1135BE01092040180910F018823E9F420930F019E
S1135BF010928E01379A80910701813029F4109216
S1135C00070183E080930F0190910701992309F420
S1135C107CC281E080930F0110928E01379A9130FB
S1135C2009F05EC02EC08091570180FF53C058C058
S1135C30833C910518F086E090E019C08136910507
S1135C4018F085E090E013C08033910518F084E0EB
S1135C5090E00DC08831910518F083E090E007C012
S1135C600C9718F082E090E002C080E090E087702A
S1135C70387D832B886D382F992786B9842F9927EF
S1135C801FC080910F018130E9F49FB7F89480918F
S1135C90D3018F3F99F48091D901883009F061C212
S1135CA00DC088E08093CA0107C0E091D901FF27A5
S1135CB0E553FE4F88E080838093D901892F99278B
S1135CC08FBF0EC0823061F41092070183E080938D
S1135CD00F0106C081608093570102C010925201E7
S1135CE0A150AF3F09F463C2550F46CF82E0B7CC51
